:0E0000000C9468000C9400000C9400000C940A
:10000E0000000C9400000C9400000C9400000C9462
:10001E0000000C9400000C9400000C9400000C9452
:10002E0000000C9400000C94D4000C9400000C946E
:10003E0000000C9400000C9400000C9400000C9432
:10004E0000000C94A2000C9400000C94BF000C94C1
:10005E0000000C9400000C9400000C9400000C9412
:10006E0000000C9400000C9400000C94000010276B
:10007E00E80364000A0001000010000110000100F6
:10008E0000003F0006005B004F0066006D007D0023
:10009E0007007F006F0077001500000101002D4E54
:1000AE00414E00494E46000002000C008E00150025
:1000BE001002900004002602A60001003E02AA00D3
:1000CE000000F894EE27EFBBF1E0F5BFE5BFF8E1D5
:1000DE00A895A4B7A77FA4BFF0936000E09360003B
:1000EE008DE0A2E0BB27ED938A95E9F780E094E0DE
:1000FE00A0E0B1E0ED930197E9F7E6EBF0E0859132
:10010E009591009761F0A591B59105901590BF015D
:10011E00F00105900D920197E1F7FB01F0CFE0E0C1
:10012E00EEBBEABDEBBDEFEFEDBFE4E0EEBFC0E02E
:10013E00D2E00C94BF0101D41A930A931091C0001F
:10014E000091C600E12FEC7181F4E32D3394F0E0C1
:10015E00E050FE4F0083E8E0E31509F43324539496
:10016E00E8E0E51511F45524F09A0991199110C0A3
:10017E00E4D3662069F06A94E72D7394F0E0E85FAB
:10018E00FD4FE081E093C600E8E0E71509F477241F
:10019E00E991EFBFF991E9911895AA93EA93EFB718
:1001AE00EA93E0912B02EF5FE0932B02E150E09196
:1001BE002E02EF5FE0932E02E150A0912B02AC33A2
:1001CE0020F0E0E0E0932B02BDD3A0912A02AC33E5
:1001DE0020F0E0E0E0932A02BCD3A0912902A831DE
:1001EE0020F0E0E0E0932902BBD3A0912702A130DA
:1001FE0061F0A33051F0A53041F0A73031F0A830B6
:10020E0021F0AA3011F0AC3029F4A0912802A032CE
:10021E0008F0ADD3A0912702A43031F0A63021F022
:10022E00A93011F0AB3029F4A0912802AF3108F0BB
:10023E009ED3A0912702A23079F4E0912602E370BA
:10024E0031F4A0912802AE3108F091D305C0A091EF
:10025E002802AD3108F08BD3A0912702AD3040F0CB
:10026E00E1E0E0932702E0912602EF5FE0932602A1
:10027E00A0912E02AC3348F0E0E0E0932E02E09124
:10028E002D02EF5FE0932D02E150A0912D02AC33D1
:10029E0040F0E0E0E0932D02E0912C02EF5FE0935E
:1002AE002C02A0912C02A83118F0E0E0E0932C0271
:1002BE00E991EFBFE991A9911895AA93289707D4D0
:1002CE00A889EAE012D40E2F1127F8015AD30D9106
:1002DE001C91A889EAE017D45BD32D913C91AF8590
:1002EE00EAE003D459D34D915C91AF85EAE00BD48B
:1002FE00F0E0EC87FD8745D3ED91FD91EC87FD870E
:10030E00AE85EAE0F2D3F0E0EA87FB873AD3ED91CF
:10031E00FD91EA87FB87AE85EAE0F5D3F0E0E8874A
:10032E00F9872FD3ED91FD91E887F987E0E0EE8311
:10033E00EF83AE81BF811B97C4F402B931D3A1E024
:10034E00B0E0E4D322B933D342B93AD3EC8541D3EA
:10035E0045D3EA853ED348D3E8853BD34BD3EE81D4
:10036E00FF813196EE83FF83E4CFB8D36196089573
:10037E00289700E075D278945E9AA89519994FC087
:10038E005E985C9A3DD319994AC0199902C0A895F6
:10039E00FCCFE0E0E2B939D3189B41C01A9B3FC0B5
:1003AE001B9B3DC0369923C0A4EFB1E0AFD3369965
:1003BE000EC036990BC032D328D3189B07C0199B99
:1003CE0005C01A9B03C01B9B01C0F3CF10C0A8959C
:1003DE0025D31BD3189B0BC0199B09C01A9B07C0B2
:1003EE001B9B05C0369B03C0379B01C0F2CF3799CC
:1003FE0015C0AEE1B0E08AD3379910C037990EC060
:10040E00AFD2A6E9B0E082D300D3189B07C0199BE8
:10041E0005C01A9B03C01B9B01C0F0CFBCCF1A991D
:10042E007FC05E985C985B9A5A98AEE1B0E06ED34E
:10043E001A9976C01A9902C0A895FCCFE0912402B1
:10044E00E2B9AED2A8EEB3E061D3EFD2189B68C08A
:10045E00199B66C01B9B64C0369935C0A4EFB1E0F2
:10046E0055D3369916C0369913C0E8D208F0F0D29B
:10047E00A0912F02A83118F0E0E0E0932F02F1D204
:10048E00D4D2189B05C0199B03C01B9B01C0EBCF98
:10049E001AC0A895D3D208F0DBD2A0912F02A831B2
:1004AE0018F0E0E0E0932F02DCD2BFD2189B0BC015
:1004BE00199B09C01A9B07C01B9B05C0379B03C025
:1004CE00369B01C0F2CF37992AC0AEE1B0E01ED301
:1004DE00379925C0379923C0E0912F02EF5FE09343
:1004EE002F02A0913002AC3308F0B2D2A0912F02AD
:1004FE00A83118F0E0E0E0932F02A6E9B0E006D3B1
:10050E00A0902F02BB24CC24DD248FD2189B07C0D1
:10051E00199B05C01A9B03C01B9B01C0DBCF95CF57
:10052E001B99ACC05E985C985B985A9AAEE1B0E0AD
:10053E00EDD21B99A3C01B9902C0A895FCCF0F5FEB
:10054E00E9E3E2B92DD20230E9F4E0E0E0932C02C7
:10055E00E0932D02E0932E02E0912C02EA93E091BB
:10056E002D02EA93A0912E02A8DE189B0BC0199BB8
:10057E0009C01A9B07C01B9B05C0369B03C0379B47
:10058E0001C0EACF033009F079C000E0A0912C023F
:10059E00EAE0ABD2F0E0E0933202F0933302A091A6
:1005AE002C02EAE0B0D2F0E0E0933402F093350290
:1005BE00A0912D02EAE099D2F0E0E0933602F0939A
:1005CE003702A0912D02EAE09ED2F0E0E0933802CD
:1005DE00F0933902A0912E02EAE087D2F0E0E09388
:1005EE003A02F0933B02A0912E02EAE08CD2F0E0A8
:1005FE00E0933C02F0933D02E0913202F09133021F
:10060E00C0D12D913C91E0913402F0913502B9D1D7
:10061E004D915C91E0913602F0913702B2D127D222
:10062E00E0913802F0913902ACD126D2E0913A0233
:10063E00F0913B02A6D125D2E0913C02F0913D0211
:10064E00A0D124D21B3088F422B9AAD126D2EE81B1
:10065E00E2B9B6D1EC81BDD1C1D1EA81BAD1C4D152
:10066E00E881B7D1C7D11F5FEDCF189B07C0199B8B
:10067E0005C01A9B03C01B9B01C0BECF1899EEC0CC
:10068E005E9A5C98BDD11899E9C0189902C0A895D8
:10069E00FCCFE0E0E2B9A0912902EAE026D278D1BF
:1006AE002D913C91A0912902EAE02DD275D14D9168
:1006BE005C91A0912A02EAE018D2F0E0EE83FF836B
:1006CE0060D1D5D1A0912A02EAE01DD2F0E0EC83F0
:1006DE00FD8357D1D1D1A0912B02EAE006D2F0E0F2
:1006EE00EA83FB834ED1CDD1A0912B02EAE00BD24F
:1006FE00F0E0E883F98345D1C9D11B3008F06BC017
:10070E0022B94ED1CAD1EE81E2B95AD1EC8161D172
:10071E0065D1EA815ED168D1E8815BD16BD1A091C0
:10072E002A02F401B0E0EA17FB0759F4A09129025E
:10073E00F501B0E0EA17FB0721F400240C140D04B8
:10074E0009F047C010E01A3070F42D9AABD12D98F5
:10075E00A9D1189B08C0199B06C01A9B04C01B9BED
:10076E0002C01F5FF0CF10E01A3090F42D9AA1E076
:10077E00B0E0CCD12D98A1E0B0E0C8D1189B08C054
:10078E00199B06C01A9B04C01B9B02C01F5FECCFB7
:10079E0010E01A3070F42D9A8BD12D9889D1189BB8
:1007AE0008C0199B06C01A9B04C01B9B02C01F5F8A
:1007BE00F0CF189B07C0199B05C01A9B03C01B9B4B
:1007CE0001C0C0CF1A9904C0E1E0F0E06F0101C092
:1007DE00A6CF1F5F92CF199B41C01A9B3FC01B9B98
:1007EE003DC0369923C0A4EFB1E090D136990EC02A
:1007FE0036990BC0A7D062D1189B07C0199B05C0B4
:10080E001A9B03C01B9B01C0F3CF10C0A8959AD0B2
:10081E0055D1189B0BC0199B09C01A9B07C01B9B77
:10082E0005C0369B03C0379B01C0F2CF379915C068
:10083E00AEE1B0E06BD1379910C037990EC089D0B8
:10084E00A6E9B0E063D13AD1189B07C0199B05C049
:10085E001A9B03C01B9B01C0F0CF1DCF8ECDFFCFC7
:10086E00E0E8E0936100E0E0E0936100E2B9EFE7D9
:10087E00E1B9EFE0E5B9E0E2E4B9E0ECE8B9E0E0D7
:10088E00E7B9E0E2EBB9ECE5EAB9E0E0E4BDE5BDDD
:10089E00E6BDE7BDE8BDE0938000EDE0E0938100AA
:1008AE00E0E0E0938500E0938400E0938700E0931E
:1008BE008600ECE4E0938900E0E4E0938800E0E059
:1008CE00E0938B00E0938A00E093B600E093B000D3
:1008DE00E093B100E093B200E093B300E093B40074
:1008EE00E0936900EDBBE0936800E0936E00E2E0F8
:1008FE00E0936F00E0E0E0937000E093C000E8ED5D
:10090E00E093C100E6E0E093C200E0E0E093C500B2
:10091E00E1E8E093C400E0E0E093C900E0E8E0BF66
:10092E00E0E0E0937B00E0937F00A895E8E1E093A0
:10093E006000E8E0E09360000895EA93FA93EFB761
:10094E00EA930895E0912A02EF5FE0932A02E150C4
:10095E000895E0912902EF5FE0932902E150089596
:10096E00E0912802EF5FE0932802E1500895E1E064
:10097E00E0932802E0912702EF5FE0932702E15017
:10098E000895A0E1B2E0EE0FFF1FAE0FBF1F089556
:10099E002E2F3327F901F5CF4E2F5527FA01F1CF20
:1009AE00459A44984398429841984098089545989E
:1009BE00449A4398429841984098A1E0B0E0A6C06E
:1009CE0045984498439A429841984098A1E0B0E0E7
:1009DE009DC0E2B94598449843980895429A41982B
:1009EE004098A1E0B0E092C04298419A4098A1E0B0
:1009FE00B0E08CC042984198409AA1E0B0E086C029
:100A0E005B985A98AEE1B0E081C0E0912802EA937B
:100A1E00E0912702EA93A09126024FCCE0912702A3
:100A2E00EF5FE0932702E1500895E0912F02EA93E1
:100A3E00E0913002EA93A09131023FCCE091300276
:100A4E00EF5FE0933002E150A0913002AC33089595
:100A5E00E0E0E0933002E0912F02EF5FE0932F028F
:100A6E000895809030029924CC24DD240895ED91D0
:100A7E00FD91EE83FF830895ED91FD91EC83FD834F
:100A8E000895ED91FD91EA83FB830895ED91FC911C
:100A9E001197E883F98310E00895A1E0B0E036D015
:100AAE0042B985CFE1E0F0E060E070E0DF012EC0FA
:100ABE00E2E0F0E060E070E0DF0128C0E0912902A2
:100ACE00EA93E0912A02EA93A0912B02F6CB5A9375
:100ADE004A933A932A931A930A9308955D814C810F
:100AEE003B812A81198108810895002498E0AA0F7C
:100AFE00001C0E1A10F40E0E01C0A1609A95B9F7E3
:100B0E00EA2FA02D0895F1DFEA2F0895109639F0FF
:100B1E00A89588E893E10197F1F71197C9F7089521
:00000001FF
